{
  "contractName": "SimpleStorage",
  "abi": [
    {
      "inputs": [],
      "stateMutability": "nonpayable",
      "type": "constructor"
    },
    {
      "anonymous": false,
      "inputs": [
        {
          "indexed": true,
          "internalType": "address",
          "name": "sender",
          "type": "address"
        },
        {
          "indexed": true,
          "internalType": "address",
          "name": "receiver",
          "type": "address"
        },
        {
          "indexed": false,
          "internalType": "string",
          "name": "ipfsHash",
          "type": "string"
        }
      ],
      "name": "FileSent",
      "type": "event"
    },
    {
      "inputs": [],
      "name": "owner",
      "outputs": [
        {
          "internalType": "address",
          "name": "",
          "type": "address"
        }
      ],
      "stateMutability": "view",
      "type": "function",
      "constant": true
    },
    {
      "inputs": [
        {
          "internalType": "uint256",
          "name": "",
          "type": "uint256"
        }
      ],
      "name": "transactions",
      "outputs": [
        {
          "internalType": "address",
          "name": "sender",
          "type": "address"
        },
        {
          "internalType": "address",
          "name": "receiver",
          "type": "address"
        },
        {
          "internalType": "string",
          "name": "ipfsHash",
          "type": "string"
        }
      ],
      "stateMutability": "view",
      "type": "function",
      "constant": true
    },
    {
      "inputs": [
        {
          "internalType": "address",
          "name": "_receiver",
          "type": "address"
        },
        {
          "internalType": "string",
          "name": "_ipfsHash",
          "type": "string"
        }
      ],
      "name": "sendFile",
      "outputs": [],
      "stateMutability": "nonpayable",
      "type": "function"
    },
    {
      "inputs": [],
      "name": "getTransactionCount",
      "outputs": [
        {
          "internalType": "uint256",
          "name": "",
          "type": "uint256"
        }
      ],
      "stateMutability": "view",
      "type": "function",
      "constant": true
    },
    {
      "inputs": [
        {
          "internalType": "uint256",
          "name": "_index",
          "type": "uint256"
        }
      ],
      "name": "getTransaction",
      "outputs": [
        {
          "internalType": "address",
          "name": "",
          "type": "address"
        },
        {
          "internalType": "address",
          "name": "",
          "type": "address"
        },
        {
          "internalType": "string",
          "name": "",
          "type": "string"
        }
      ],
      "stateMutability": "view",
      "type": "function",
      "constant": true
    }
  ],
  "bytecode": "0x608060405234801561001057600080fd5b50336000806101000a81548173ffffffffffffffffffffffffffffffffffffffff021916908373ffffffffffffffffffffffffffffffffffffffff160217905550610b39806100606000396000f3fe608060405234801561001057600080fd5b50600436106100575760003560e01c80632e7700f01461005c57806333ea3dc81461007a5780638da5cb5b146100ac5780639ace38c2146100ca578063c842f371146100fc575b600080fd5b610064610118565b604051610071919061066d565b60405180910390f35b610094600480360381019061008f91906106c8565b610125565b6040516100a3939291906107cf565b60405180910390f35b6100b46102fd565b6040516100c1919061080d565b60405180910390f35b6100e460048036038101906100df91906106c8565b610321565b6040516100f3939291906107cf565b60405180910390f35b61011660048036038101906101119190610989565b610423565b005b6000600180549050905090565b60008060606001805490508410610171576040517f08c379a000000000000000000000000000000000000000000000000000000000815260040161016890610a31565b60405180910390fd5b60006001858154811061018757610186610a51565b5b90600052602060002090600302016040518060600160405290816000820160009054906101000a900473ffffffffffffffffffffffffffffffffffffffff1673ffffffffffffffffffffffffffffffffffffffff1673ffffffffffffffffffffffffffffffffffffffff1681526020016001820160009054906101000a900473ffffffffffffffffffffffffffffffffffffffff1673ffffffffffffffffffffffffffffffffffffffff1673ffffffffffffffffffffffffffffffffffffffff16815260200160028201805461025c90610aaf565b80601f016020809104026020016040519081016040528092919081815260200182805461028890610aaf565b80156102d55780601f106102aa576101008083540402835291602001916102d5565b820191906000526020600020905b8154815290600101906020018083116102b857829003601f168201915b5050505050815250509050806000015181602001518260400151935093509350509193909250565b60008054906101000a900473ffffffffffffffffffffffffffffffffffffffff1681565b6001818154811061033157600080fd5b90600052602060002090600302016000915090508060000160009054906101000a900473ffffffffffffffffffffffffffffffffffffffff16908060010160009054906101000a900473ffffffffffffffffffffffffffffffffffffffff16908060020180546103a090610aaf565b80601f01602080910402602001604051908101604052809291908181526020018280546103cc90610aaf565b80156104195780601f106103ee57610100808354040283529160200191610419565b820191906000526020600020905b8154815290600101906020018083116103fc57829003601f168201915b5050505050905083565b600060405180606001604052803373ffffffffffffffffffffffffffffffffffffffff1681526020018473ffffffffffffffffffffffffffffffffffffffff168152602001838152509050600181908060018154018082558091505060019003906000526020600020906003020160009091909190915060008201518160000160006101000a81548173ffffffffffffffffffffffffffffffffffffffff021916908373ffffffffffffffffffffffffffffffffffffffff16021790555060208201518160010160006101000a81548173ffffffffffffffffffffffffffffffffffffffff021916908373ffffffffffffffffffffffffffffffffffffffff16021790555060408201518160020190805190602001906105449291906105b1565b5050508273ffffffffffffffffffffffffffffffffffffffff163373ffffffffffffffffffffffffffffffffffffffff167f43d1fcf03890399167d742f87284265e9e4879da0bfa69cbd30a369114bcf92c846040516105a49190610ae1565b60405180910390a3505050565b8280546105bd90610aaf565b90600052602060002090601f0160209004810192826105df5760008555610626565b82601f106105f857805160ff1916838001178555610626565b82800160010185558215610626579182015b8281111561062557825182559160200191906001019061060a565b5b5090506106339190610637565b5090565b5b80821115610650576000816000905550600101610638565b5090565b6000819050919050565b61066781610654565b82525050565b6000602082019050610682600083018461065e565b92915050565b6000604051905090565b600080fd5b600080fd5b6106a581610654565b81146106b057600080fd5b50565b6000813590506106c28161069c565b92915050565b6000602082840312156106de576106dd610692565b5b60006106ec848285016106b3565b91505092915050565b600073ffffffffffffffffffffffffffffffffffffffff82169050919050565b6000610720826106f5565b9050919050565b61073081610715565b82525050565b600081519050919050565b600082825260208201905092915050565b60005b83811015610770578082015181840152602081019050610755565b8381111561077f576000848401525b50505050565b6000601f19601f8301169050919050565b60006107a182610736565b6107ab8185610741565b93506107bb818560208601610752565b6107c481610785565b840191505092915050565b60006060820190506107e46000830186610727565b6107f16020830185610727565b81810360408301526108038184610796565b9050949350505050565b60006020820190506108226000830184610727565b92915050565b61083181610715565b811461083c57600080fd5b50565b60008135905061084e81610828565b92915050565b600080fd5b600080fd5b7f4e487b7100000000000000000000000000000000000000000000000000000000600052604160045260246000fd5b61089682610785565b810181811067ffffffffffffffff821117156108b5576108b461085e565b5b80604052505050565b60006108c8610688565b90506108d4828261088d565b919050565b600067ffffffffffffffff8211156108f4576108f361085e565b5b6108fd82610785565b9050602081019050919050565b82818337600083830152505050565b600061092c610927846108d9565b6108be565b90508281526020810184848401111561094857610947610859565b5b61095384828561090a565b509392505050565b600082601f8301126109705761096f610854565b5b8135610980848260208601610919565b91505092915050565b600080604083850312156109a05761099f610692565b5b60006109ae8582860161083f565b925050602083013567ffffffffffffffff8111156109cf576109ce610697565b5b6109db8582860161095b565b9150509250929050565b7f496e646578206f7574206f6620626f756e647300000000000000000000000000600082015250565b6000610a1b601383610741565b9150610a26826109e5565b602082019050919050565b60006020820190508181036000830152610a4a81610a0e565b9050919050565b7f4e487b7100000000000000000000000000000000000000000000000000000000600052603260045260246000fd5b7f4e487b7100000000000000000000000000000000000000000000000000000000600052602260045260246000fd5b60006002820490506001821680610ac757607f821691505b60208210811415610adb57610ada610a80565b5b50919050565b60006020820190508181036000830152610afb8184610796565b90509291505056fea2646970667358221220470200e5ce4d333d4907f565eb8df5b10b1cee7937cb1d5d1a6caead901e2fe864736f6c63430008090033",
  "immutableReferences": {},
  "source": "// SPDX-License-Identifier: MIT\r\npragma solidity ^0.8.0;\r\n\r\ncontract SimpleStorage {\r\n    address public owner;\r\n    event FileSent(address indexed sender, address indexed receiver, string ipfsHash);\r\n\r\n    struct Transaction {\r\n        address sender;\r\n        address receiver;\r\n        string ipfsHash;\r\n    }\r\n\r\n    Transaction[] public transactions;\r\n\r\n    constructor() {\r\n        owner = msg.sender;\r\n    }\r\n\r\n    function sendFile(address _receiver, string memory _ipfsHash) external {\r\n        Transaction memory newTransaction = Transaction({\r\n            sender: msg.sender,\r\n            receiver: _receiver,\r\n            ipfsHash: _ipfsHash\r\n        });\r\n        transactions.push(newTransaction);\r\n        emit FileSent(msg.sender, _receiver, _ipfsHash);\r\n    }\r\n\r\n    function getTransactionCount() external view returns (uint256) {\r\n        return transactions.length;\r\n    }\r\n\r\n    function getTransaction(uint256 _index) external view returns (address, address, string memory) {\r\n        require(_index < transactions.length, \"Index out of bounds\");\r\n        Transaction memory transaction = transactions[_index];\r\n        return (transaction.sender, transaction.receiver, transaction.ipfsHash);\r\n    }\r\n}",
  "sourcePath": "C:\\Users\\lenovo\\Desktop\\ipfs\\contracts\\SimpleStorage.sol",
  "compiler": {
    "name": "solc",
    "version": "0.8.9+commit.e5eed63a.Emscripten.clang"
  },
  "schemaVersion": "3.4.16",
  "updatedAt": "2024-01-06T10:26:48.781Z",
  "networkType": "ethereum",
  "devdoc": {
    "kind": "dev",
    "methods": {},
    "version": 1
  },
  "userdoc": {
    "kind": "user",
    "methods": {},
    "version": 1
  }
}