{
  "contractName": "SimpleStorage",
  "abi": [
    {
      "inputs": [],
      "stateMutability": "nonpayable",
      "type": "constructor"
    },
    {
      "anonymous": false,
      "inputs": [
        {
          "indexed": true,
          "internalType": "address",
          "name": "sender",
          "type": "address"
        },
        {
          "indexed": true,
          "internalType": "address",
          "name": "receiver",
          "type": "address"
        },
        {
          "indexed": false,
          "internalType": "string",
          "name": "ipfsHash",
          "type": "string"
        }
      ],
      "name": "FileSent",
      "type": "event"
    },
    {
      "inputs": [],
      "name": "owner",
      "outputs": [
        {
          "internalType": "address",
          "name": "",
          "type": "address"
        }
      ],
      "stateMutability": "view",
      "type": "function",
      "constant": true
    },
    {
      "inputs": [
        {
          "internalType": "uint256",
          "name": "",
          "type": "uint256"
        }
      ],
      "name": "transactions",
      "outputs": [
        {
          "internalType": "address",
          "name": "sender",
          "type": "address"
        },
        {
          "internalType": "address",
          "name": "receiver",
          "type": "address"
        },
        {
          "internalType": "string",
          "name": "ipfsHash",
          "type": "string"
        }
      ],
      "stateMutability": "view",
      "type": "function",
      "constant": true
    },
    {
      "inputs": [
        {
          "internalType": "address",
          "name": "_receiver",
          "type": "address"
        },
        {
          "internalType": "string",
          "name": "_ipfsHash",
          "type": "string"
        }
      ],
      "name": "sendFile",
      "outputs": [],
      "stateMutability": "nonpayable",
      "type": "function"
    },
    {
      "inputs": [],
      "name": "getTransactionCount",
      "outputs": [
        {
          "internalType": "uint256",
          "name": "",
          "type": "uint256"
        }
      ],
      "stateMutability": "view",
      "type": "function",
      "constant": true
    },
    {
      "inputs": [
        {
          "internalType": "uint256",
          "name": "_index",
          "type": "uint256"
        }
      ],
      "name": "getTransaction",
      "outputs": [
        {
          "internalType": "address",
          "name": "",
          "type": "address"
        },
        {
          "internalType": "address",
          "name": "",
          "type": "address"
        },
        {
          "internalType": "string",
          "name": "",
          "type": "string"
        }
      ],
      "stateMutability": "view",
      "type": "function",
      "constant": true
    },
    {
      "inputs": [],
      "name": "getAllTransactions",
      "outputs": [
        {
          "components": [
            {
              "internalType": "address",
              "name": "sender",
              "type": "address"
            },
            {
              "internalType": "address",
              "name": "receiver",
              "type": "address"
            },
            {
              "internalType": "string",
              "name": "ipfsHash",
              "type": "string"
            }
          ],
          "internalType": "struct SimpleStorage.Transaction[]",
          "name": "",
          "type": "tuple[]"
        }
      ],
      "stateMutability": "view",
      "type": "function",
      "constant": true
    }
  ],
  "bytecode": "0x608060405234801561001057600080fd5b50336000806101000a81548173ffffffffffffffffffffffffffffffffffffffff021916908373ffffffffffffffffffffffffffffffffffffffff160217905550610e8c806100606000396000f3fe608060405234801561001057600080fd5b50600436106100625760003560e01c806327506f53146100675780632e7700f01461008557806333ea3dc8146100a35780638da5cb5b146100d55780639ace38c2146100f3578063c842f37114610125575b600080fd5b61006f610141565b60405161007c9190610a06565b60405180910390f35b61008d6102de565b60405161009a9190610a41565b60405180910390f35b6100bd60048036038101906100b89190610a9c565b6102eb565b6040516100cc93929190610b22565b60405180910390f35b6100dd6104c3565b6040516100ea9190610b60565b60405180910390f35b61010d60048036038101906101089190610a9c565b6104e7565b60405161011c93929190610b22565b60405180910390f35b61013f600480360381019061013a9190610cdc565b6105e9565b005b60606001805480602002602001604051908101604052809291908181526020016000905b828210156102d557838290600052602060002090600302016040518060600160405290816000820160009054906101000a900473ffffffffffffffffffffffffffffffffffffffff1673ffffffffffffffffffffffffffffffffffffffff1673ffffffffffffffffffffffffffffffffffffffff1681526020016001820160009054906101000a900473ffffffffffffffffffffffffffffffffffffffff1673ffffffffffffffffffffffffffffffffffffffff1673ffffffffffffffffffffffffffffffffffffffff16815260200160028201805461024490610d67565b80601f016020809104026020016040519081016040528092919081815260200182805461027090610d67565b80156102bd5780601f10610292576101008083540402835291602001916102bd565b820191906000526020600020905b8154815290600101906020018083116102a057829003601f168201915b50505050508152505081526020019060010190610165565b50505050905090565b6000600180549050905090565b60008060606001805490508410610337576040517f08c379a000000000000000000000000000000000000000000000000000000000815260040161032e90610de5565b60405180910390fd5b60006001858154811061034d5761034c610e05565b5b90600052602060002090600302016040518060600160405290816000820160009054906101000a900473ffffffffffffffffffffffffffffffffffffffff1673ffffffffffffffffffffffffffffffffffffffff1673ffffffffffffffffffffffffffffffffffffffff1681526020016001820160009054906101000a900473ffffffffffffffffffffffffffffffffffffffff1673ffffffffffffffffffffffffffffffffffffffff1673ffffffffffffffffffffffffffffffffffffffff16815260200160028201805461042290610d67565b80601f016020809104026020016040519081016040528092919081815260200182805461044e90610d67565b801561049b5780601f106104705761010080835404028352916020019161049b565b820191906000526020600020905b81548152906001019060200180831161047e57829003601f168201915b5050505050815250509050806000015181602001518260400151935093509350509193909250565b60008054906101000a900473ffffffffffffffffffffffffffffffffffffffff1681565b600181815481106104f757600080fd5b90600052602060002090600302016000915090508060000160009054906101000a900473ffffffffffffffffffffffffffffffffffffffff16908060010160009054906101000a900473ffffffffffffffffffffffffffffffffffffffff169080600201805461056690610d67565b80601f016020809104026020016040519081016040528092919081815260200182805461059290610d67565b80156105df5780601f106105b4576101008083540402835291602001916105df565b820191906000526020600020905b8154815290600101906020018083116105c257829003601f168201915b5050505050905083565b600060405180606001604052803373ffffffffffffffffffffffffffffffffffffffff1681526020018473ffffffffffffffffffffffffffffffffffffffff168152602001838152509050600181908060018154018082558091505060019003906000526020600020906003020160009091909190915060008201518160000160006101000a81548173ffffffffffffffffffffffffffffffffffffffff021916908373ffffffffffffffffffffffffffffffffffffffff16021790555060208201518160010160006101000a81548173ffffffffffffffffffffffffffffffffffffffff021916908373ffffffffffffffffffffffffffffffffffffffff160217905550604082015181600201908051906020019061070a929190610777565b5050508273ffffffffffffffffffffffffffffffffffffffff163373ffffffffffffffffffffffffffffffffffffffff167f43d1fcf03890399167d742f87284265e9e4879da0bfa69cbd30a369114bcf92c8460405161076a9190610e34565b60405180910390a3505050565b82805461078390610d67565b90600052602060002090601f0160209004810192826107a557600085556107ec565b82601f106107be57805160ff19168380011785556107ec565b828001600101855582156107ec579182015b828111156107eb5782518255916020019190600101906107d0565b5b5090506107f991906107fd565b5090565b5b808211156108165760008160009055506001016107fe565b5090565b600081519050919050565b600082825260208201905092915050565b6000819050602082019050919050565b600073ffffffffffffffffffffffffffffffffffffffff82169050919050565b600061087182610846565b9050919050565b61088181610866565b82525050565b600081519050919050565b600082825260208201905092915050565b60005b838110156108c15780820151818401526020810190506108a6565b838111156108d0576000848401525b50505050565b6000601f19601f8301169050919050565b60006108f282610887565b6108fc8185610892565b935061090c8185602086016108a3565b610915816108d6565b840191505092915050565b60006060830160008301516109386000860182610878565b50602083015161094b6020860182610878565b506040830151848203604086015261096382826108e7565b9150508091505092915050565b600061097c8383610920565b905092915050565b6000602082019050919050565b600061099c8261081a565b6109a68185610825565b9350836020820285016109b885610836565b8060005b858110156109f457848403895281516109d58582610970565b94506109e083610984565b925060208a019950506001810190506109bc565b50829750879550505050505092915050565b60006020820190508181036000830152610a208184610991565b905092915050565b6000819050919050565b610a3b81610a28565b82525050565b6000602082019050610a566000830184610a32565b92915050565b6000604051905090565b600080fd5b600080fd5b610a7981610a28565b8114610a8457600080fd5b50565b600081359050610a9681610a70565b92915050565b600060208284031215610ab257610ab1610a66565b5b6000610ac084828501610a87565b91505092915050565b610ad281610866565b82525050565b600082825260208201905092915050565b6000610af482610887565b610afe8185610ad8565b9350610b0e8185602086016108a3565b610b17816108d6565b840191505092915050565b6000606082019050610b376000830186610ac9565b610b446020830185610ac9565b8181036040830152610b568184610ae9565b9050949350505050565b6000602082019050610b756000830184610ac9565b92915050565b610b8481610866565b8114610b8f57600080fd5b50565b600081359050610ba181610b7b565b92915050565b600080fd5b600080fd5b7f4e487b7100000000000000000000000000000000000000000000000000000000600052604160045260246000fd5b610be9826108d6565b810181811067ffffffffffffffff82111715610c0857610c07610bb1565b5b80604052505050565b6000610c1b610a5c565b9050610c278282610be0565b919050565b600067ffffffffffffffff821115610c4757610c46610bb1565b5b610c50826108d6565b9050602081019050919050565b82818337600083830152505050565b6000610c7f610c7a84610c2c565b610c11565b905082815260208101848484011115610c9b57610c9a610bac565b5b610ca6848285610c5d565b509392505050565b600082601f830112610cc357610cc2610ba7565b5b8135610cd3848260208601610c6c565b91505092915050565b60008060408385031215610cf357610cf2610a66565b5b6000610d0185828601610b92565b925050602083013567ffffffffffffffff811115610d2257610d21610a6b565b5b610d2e85828601610cae565b9150509250929050565b7f4e487b7100000000000000000000000000000000000000000000000000000000600052602260045260246000fd5b60006002820490506001821680610d7f57607f821691505b60208210811415610d9357610d92610d38565b5b50919050565b7f496e646578206f7574206f6620626f756e647300000000000000000000000000600082015250565b6000610dcf601383610ad8565b9150610dda82610d99565b602082019050919050565b60006020820190508181036000830152610dfe81610dc2565b9050919050565b7f4e487b7100000000000000000000000000000000000000000000000000000000600052603260045260246000fd5b60006020820190508181036000830152610e4e8184610ae9565b90509291505056fea2646970667358221220e3db1a39233f87a13e60fc7a64c27ad04d876d4e17ab2bb5a38dffdc2940a9c964736f6c63430008090033",
  "immutableReferences": {},
  "source": "// SPDX-License-Identifier: MIT\r\npragma solidity ^0.8.0;\r\n\r\ncontract SimpleStorage {\r\n    address public owner;\r\n    event FileSent(address indexed sender, address indexed receiver, string ipfsHash);\r\n\r\n    struct Transaction {\r\n        address sender;\r\n        address receiver;\r\n        string ipfsHash;\r\n    }\r\n\r\n    Transaction[] public transactions;\r\n\r\n    constructor() {\r\n        owner = msg.sender;\r\n    }\r\n\r\n    function sendFile(address _receiver, string memory _ipfsHash) external {\r\n        Transaction memory newTransaction = Transaction({\r\n            sender: msg.sender,\r\n            receiver: _receiver,\r\n            ipfsHash: _ipfsHash\r\n        });\r\n        transactions.push(newTransaction);\r\n        emit FileSent(msg.sender, _receiver, _ipfsHash);\r\n    }\r\n\r\n    function getTransactionCount() external view returns (uint256) {\r\n        return transactions.length;\r\n    }\r\n\r\n    function getTransaction(uint256 _index) external view returns (address, address, string memory) {\r\n        require(_index < transactions.length, \"Index out of bounds\");\r\n        Transaction memory transaction = transactions[_index];\r\n        return (transaction.sender, transaction.receiver, transaction.ipfsHash);\r\n    }\r\n\r\n    function getAllTransactions() public view returns (Transaction[] memory) {\r\n    return transactions;\r\n    }\r\n}",
  "sourcePath": "C:\\Users\\burcin\\Desktop\\LLMS\\contracts\\SimpleStorage.sol",
  "compiler": {
    "name": "solc",
    "version": "0.8.9+commit.e5eed63a.Emscripten.clang"
  },
  "schemaVersion": "3.4.16",
  "updatedAt": "2024-01-14T15:01:18.052Z",
  "networkType": "ethereum",
  "devdoc": {
    "kind": "dev",
    "methods": {},
    "version": 1
  },
  "userdoc": {
    "kind": "user",
    "methods": {},
    "version": 1
  }
}