{
  "contractName": "SimpleStorage",
  "abi": [
    {
      "inputs": [
        {
          "internalType": "address",
          "name": "",
          "type": "address"
        },
        {
          "internalType": "uint256",
          "name": "",
          "type": "uint256"
        }
      ],
      "name": "receivedDataEntries",
      "outputs": [
        {
          "internalType": "address",
          "name": "sender",
          "type": "address"
        },
        {
          "internalType": "address",
          "name": "recipient",
          "type": "address"
        },
        {
          "internalType": "string",
          "name": "ipfsHash",
          "type": "string"
        }
      ],
      "stateMutability": "view",
      "type": "function",
      "constant": true
    },
    {
      "inputs": [
        {
          "internalType": "address",
          "name": "",
          "type": "address"
        },
        {
          "internalType": "uint256",
          "name": "",
          "type": "uint256"
        }
      ],
      "name": "sentDataEntries",
      "outputs": [
        {
          "internalType": "address",
          "name": "sender",
          "type": "address"
        },
        {
          "internalType": "address",
          "name": "recipient",
          "type": "address"
        },
        {
          "internalType": "string",
          "name": "ipfsHash",
          "type": "string"
        }
      ],
      "stateMutability": "view",
      "type": "function",
      "constant": true
    },
    {
      "inputs": [
        {
          "internalType": "address",
          "name": "_recipient",
          "type": "address"
        },
        {
          "internalType": "string",
          "name": "_ipfsHash",
          "type": "string"
        }
      ],
      "name": "setIPFSHash",
      "outputs": [],
      "stateMutability": "nonpayable",
      "type": "function"
    },
    {
      "inputs": [],
      "name": "getSentDataEntries",
      "outputs": [
        {
          "components": [
            {
              "internalType": "address",
              "name": "sender",
              "type": "address"
            },
            {
              "internalType": "address",
              "name": "recipient",
              "type": "address"
            },
            {
              "internalType": "string",
              "name": "ipfsHash",
              "type": "string"
            }
          ],
          "internalType": "struct SimpleStorage.DataEntry[]",
          "name": "",
          "type": "tuple[]"
        }
      ],
      "stateMutability": "view",
      "type": "function",
      "constant": true
    },
    {
      "inputs": [],
      "name": "getReceivedDataEntries",
      "outputs": [
        {
          "components": [
            {
              "internalType": "address",
              "name": "sender",
              "type": "address"
            },
            {
              "internalType": "address",
              "name": "recipient",
              "type": "address"
            },
            {
              "internalType": "string",
              "name": "ipfsHash",
              "type": "string"
            }
          ],
          "internalType": "struct SimpleStorage.DataEntry[]",
          "name": "",
          "type": "tuple[]"
        }
      ],
      "stateMutability": "view",
      "type": "function",
      "constant": true
    },
    {
      "inputs": [
        {
          "internalType": "address",
          "name": "_sender",
          "type": "address"
        },
        {
          "internalType": "address",
          "name": "_recipient",
          "type": "address"
        },
        {
          "internalType": "uint256",
          "name": "_index",
          "type": "uint256"
        }
      ],
      "name": "getIPFSHash",
      "outputs": [
        {
          "internalType": "string",
          "name": "",
          "type": "string"
        }
      ],
      "stateMutability": "view",
      "type": "function",
      "constant": true
    }
  ],
  "bytecode": "0x608060405234801561001057600080fd5b506114aa806100206000396000f3fe608060405234801561001057600080fd5b50600436106100625760003560e01c806327237f0c1461006757806353af0666146100835780637d149f9f146100a15780639aa46f07146100d3578063e6a1982714610103578063f945f48814610121575b600080fd5b610081600480360381019061007c9190610ed1565b610153565b005b61008b61043e565b60405161009891906110d6565b60405180910390f35b6100bb60048036038101906100b6919061112e565b610618565b6040516100ca939291906111c7565b60405180910390f35b6100ed60048036038101906100e89190611205565b610727565b6040516100fa9190611258565b60405180910390f35b61010b61098e565b60405161011891906110d6565b60405180910390f35b61013b6004803603810190610136919061112e565b610b67565b60405161014a939291906111c7565b60405180910390f35b818073ffffffffffffffffffffffffffffffffffffffff163373ffffffffffffffffffffffffffffffffffffffff16146101c2576040517f08c379a00000000000000000000000000000000000000000000000000000000081526004016101b9906112ec565b60405180910390fd5b600060405180606001604052803373ffffffffffffffffffffffffffffffffffffffff1681526020018573ffffffffffffffffffffffffffffffffffffffff1681526020018481525090506000803373ffffffffffffffffffffffffffffffffffffffff1673ffffffffffffffffffffffffffffffffffffffff16815260200190815260200160002081908060018154018082558091505060019003906000526020600020906003020160009091909190915060008201518160000160006101000a81548173ffffffffffffffffffffffffffffffffffffffff021916908373ffffffffffffffffffffffffffffffffffffffff16021790555060208201518160010160006101000a81548173ffffffffffffffffffffffffffffffffffffffff021916908373ffffffffffffffffffffffffffffffffffffffff160217905550604082015181600201908051906020019061031f929190610c76565b505050600160008573ffffffffffffffffffffffffffffffffffffffff1673ffffffffffffffffffffffffffffffffffffffff16815260200190815260200160002081908060018154018082558091505060019003906000526020600020906003020160009091909190915060008201518160000160006101000a81548173ffffffffffffffffffffffffffffffffffffffff021916908373ffffffffffffffffffffffffffffffffffffffff16021790555060208201518160010160006101000a81548173ffffffffffffffffffffffffffffffffffffffff021916908373ffffffffffffffffffffffffffffffffffffffff1602179055506040820151816002019080519060200190610435929190610c76565b50505050505050565b6060600160003373ffffffffffffffffffffffffffffffffffffffff1673ffffffffffffffffffffffffffffffffffffffff168152602001908152602001600020805480602002602001604051908101604052809291908181526020016000905b8282101561060f57838290600052602060002090600302016040518060600160405290816000820160009054906101000a900473ffffffffffffffffffffffffffffffffffffffff1673ffffffffffffffffffffffffffffffffffffffff1673ffffffffffffffffffffffffffffffffffffffff1681526020016001820160009054906101000a900473ffffffffffffffffffffffffffffffffffffffff1673ffffffffffffffffffffffffffffffffffffffff1673ffffffffffffffffffffffffffffffffffffffff16815260200160028201805461057e9061133b565b80601f01602080910402602001604051908101604052809291908181526020018280546105aa9061133b565b80156105f75780601f106105cc576101008083540402835291602001916105f7565b820191906000526020600020905b8154815290600101906020018083116105da57829003601f168201915b5050505050815250508152602001906001019061049f565b50505050905090565b6001602052816000526040600020818154811061063457600080fd5b9060005260206000209060030201600091509150508060000160009054906101000a900473ffffffffffffffffffffffffffffffffffffffff16908060010160009054906101000a900473ffffffffffffffffffffffffffffffffffffffff16908060020180546106a49061133b565b80601f01602080910402602001604051908101604052809291908181526020018280546106d09061133b565b801561071d5780601f106106f25761010080835404028352916020019161071d565b820191906000526020600020905b81548152906001019060200180831161070057829003601f168201915b5050505050905083565b60606000808573ffffffffffffffffffffffffffffffffffffffff1673ffffffffffffffffffffffffffffffffffffffff1681526020019081526020016000208054905082106107ac576040517f08c379a00000000000000000000000000000000000000000000000000000000081526004016107a3906113b9565b60405180910390fd5b8273ffffffffffffffffffffffffffffffffffffffff166000808673ffffffffffffffffffffffffffffffffffffffff1673ffffffffffffffffffffffffffffffffffffffff1681526020019081526020016000208381548110610813576108126113d9565b5b906000526020600020906003020160010160009054906101000a900473ffffffffffffffffffffffffffffffffffffffff1673ffffffffffffffffffffffffffffffffffffffff161461089b576040517f08c379a000000000000000000000000000000000000000000000000000000000815260040161089290611454565b60405180910390fd5b6000808573ffffffffffffffffffffffffffffffffffffffff1673ffffffffffffffffffffffffffffffffffffffff16815260200190815260200160002082815481106108eb576108ea6113d9565b5b906000526020600020906003020160020180546109079061133b565b80601f01602080910402602001604051908101604052809291908181526020018280546109339061133b565b80156109805780601f1061095557610100808354040283529160200191610980565b820191906000526020600020905b81548152906001019060200180831161096357829003601f168201915b505050505090509392505050565b60606000803373ffffffffffffffffffffffffffffffffffffffff1673ffffffffffffffffffffffffffffffffffffffff168152602001908152602001600020805480602002602001604051908101604052809291908181526020016000905b82821015610b5e57838290600052602060002090600302016040518060600160405290816000820160009054906101000a900473ffffffffffffffffffffffffffffffffffffffff1673ffffffffffffffffffffffffffffffffffffffff1673ffffffffffffffffffffffffffffffffffffffff1681526020016001820160009054906101000a900473ffffffffffffffffffffffffffffffffffffffff1673ffffffffffffffffffffffffffffffffffffffff1673ffffffffffffffffffffffffffffffffffffffff168152602001600282018054610acd9061133b565b80601f0160208091040260200160405190810160405280929190818152602001828054610af99061133b565b8015610b465780601f10610b1b57610100808354040283529160200191610b46565b820191906000526020600020905b815481529060010190602001808311610b2957829003601f168201915b505050505081525050815260200190600101906109ee565b50505050905090565b60006020528160005260406000208181548110610b8357600080fd5b9060005260206000209060030201600091509150508060000160009054906101000a900473ffffffffffffffffffffffffffffffffffffffff16908060010160009054906101000a900473ffffffffffffffffffffffffffffffffffffffff1690806002018054610bf39061133b565b80601f0160208091040260200160405190810160405280929190818152602001828054610c1f9061133b565b8015610c6c5780601f10610c4157610100808354040283529160200191610c6c565b820191906000526020600020905b815481529060010190602001808311610c4f57829003601f168201915b5050505050905083565b828054610c829061133b565b90600052602060002090601f016020900481019282610ca45760008555610ceb565b82601f10610cbd57805160ff1916838001178555610ceb565b82800160010185558215610ceb579182015b82811115610cea578251825591602001919060010190610ccf565b5b509050610cf89190610cfc565b5090565b5b80821115610d15576000816000905550600101610cfd565b5090565b6000604051905090565b600080fd5b600080fd5b600073ffffffffffffffffffffffffffffffffffffffff82169050919050565b6000610d5882610d2d565b9050919050565b610d6881610d4d565b8114610d7357600080fd5b50565b600081359050610d8581610d5f565b92915050565b600080fd5b600080fd5b6000601f19601f8301169050919050565b7f4e487b7100000000000000000000000000000000000000000000000000000000600052604160045260246000fd5b610dde82610d95565b810181811067ffffffffffffffff82111715610dfd57610dfc610da6565b5b80604052505050565b6000610e10610d19565b9050610e1c8282610dd5565b919050565b600067ffffffffffffffff821115610e3c57610e3b610da6565b5b610e4582610d95565b9050602081019050919050565b82818337600083830152505050565b6000610e74610e6f84610e21565b610e06565b905082815260208101848484011115610e9057610e8f610d90565b5b610e9b848285610e52565b509392505050565b600082601f830112610eb857610eb7610d8b565b5b8135610ec8848260208601610e61565b91505092915050565b60008060408385031215610ee857610ee7610d23565b5b6000610ef685828601610d76565b925050602083013567ffffffffffffffff811115610f1757610f16610d28565b5b610f2385828601610ea3565b9150509250929050565b600081519050919050565b600082825260208201905092915050565b6000819050602082019050919050565b610f6281610d4d565b82525050565b600081519050919050565b600082825260208201905092915050565b60005b83811015610fa2578082015181840152602081019050610f87565b83811115610fb1576000848401525b50505050565b6000610fc282610f68565b610fcc8185610f73565b9350610fdc818560208601610f84565b610fe581610d95565b840191505092915050565b60006060830160008301516110086000860182610f59565b50602083015161101b6020860182610f59565b50604083015184820360408601526110338282610fb7565b9150508091505092915050565b600061104c8383610ff0565b905092915050565b6000602082019050919050565b600061106c82610f2d565b6110768185610f38565b93508360208202850161108885610f49565b8060005b858110156110c457848403895281516110a58582611040565b94506110b083611054565b925060208a0199505060018101905061108c565b50829750879550505050505092915050565b600060208201905081810360008301526110f08184611061565b905092915050565b6000819050919050565b61110b816110f8565b811461111657600080fd5b50565b60008135905061112881611102565b92915050565b6000806040838503121561114557611144610d23565b5b600061115385828601610d76565b925050602061116485828601611119565b9150509250929050565b61117781610d4d565b82525050565b600082825260208201905092915050565b600061119982610f68565b6111a3818561117d565b93506111b3818560208601610f84565b6111bc81610d95565b840191505092915050565b60006060820190506111dc600083018661116e565b6111e9602083018561116e565b81810360408301526111fb818461118e565b9050949350505050565b60008060006060848603121561121e5761121d610d23565b5b600061122c86828701610d76565b935050602061123d86828701610d76565b925050604061124e86828701611119565b9150509250925092565b60006020820190508181036000830152611272818461118e565b905092915050565b7f596f7520617265206e6f7420616c6c6f77656420746f20706572666f726d207460008201527f68697320616374696f6e00000000000000000000000000000000000000000000602082015250565b60006112d6602a8361117d565b91506112e18261127a565b604082019050919050565b60006020820190508181036000830152611305816112c9565b9050919050565b7f4e487b7100000000000000000000000000000000000000000000000000000000600052602260045260246000fd5b6000600282049050600182168061135357607f821691505b602082108114156113675761136661130c565b5b50919050565b7f496e646578206f7574206f6620626f756e647300000000000000000000000000600082015250565b60006113a360138361117d565b91506113ae8261136d565b602082019050919050565b600060208201905081810360008301526113d281611396565b9050919050565b7f4e487b7100000000000000000000000000000000000000000000000000000000600052603260045260246000fd5b7f496e76616c696420726563697069656e74000000000000000000000000000000600082015250565b600061143e60118361117d565b915061144982611408565b602082019050919050565b6000602082019050818103600083015261146d81611431565b905091905056fea264697066735822122083bf437e08f50184e27521171c3f7c6be1eceb378f9dc632bf8de8d1bb5e1c7c64736f6c63430008090033",
  "immutableReferences": {},
  "source": "// SPDX-License-Identifier: MIT\r\npragma solidity ^0.8.0;\r\n\r\ncontract SimpleStorage {\r\n    struct DataEntry {\r\n        address sender;\r\n        address recipient;\r\n        string ipfsHash;\r\n    }\r\n\r\n    mapping(address => DataEntry[]) public sentDataEntries;\r\n    mapping(address => DataEntry[]) public receivedDataEntries;\r\n\r\n    modifier onlySender(address _recipient) {\r\n        require(\r\n            msg.sender == _recipient,\r\n            \"You are not allowed to perform this action\"\r\n        );\r\n        _;\r\n    }\r\n\r\n    function setIPFSHash(address _recipient, string memory _ipfsHash) public onlySender(_recipient) {\r\n        DataEntry memory newDataEntry = DataEntry(msg.sender, _recipient, _ipfsHash);\r\n        sentDataEntries[msg.sender].push(newDataEntry);\r\n        receivedDataEntries[_recipient].push(newDataEntry);\r\n    }\r\n\r\n    function getSentDataEntries() public view returns (DataEntry[] memory) {\r\n        return sentDataEntries[msg.sender];\r\n    }\r\n\r\n    function getReceivedDataEntries() public view returns (DataEntry[] memory) {\r\n        return receivedDataEntries[msg.sender];\r\n    }\r\n\r\n    function getIPFSHash(address _sender, address _recipient, uint256 _index) public view returns (string memory) {\r\n        require(_index < sentDataEntries[_sender].length, \"Index out of bounds\");\r\n        require(sentDataEntries[_sender][_index].recipient == _recipient, \"Invalid recipient\");\r\n        return sentDataEntries[_sender][_index].ipfsHash;\r\n    }\r\n}",
  "sourcePath": "C:\\Users\\lenovo\\Desktop\\LLMS-CENG3550-\\contracts\\SimpleStorage.sol",
  "compiler": {
    "name": "solc",
    "version": "0.8.9+commit.e5eed63a.Emscripten.clang"
  },
  "schemaVersion": "3.4.16",
  "updatedAt": "2024-01-02T11:21:59.336Z",
  "networkType": "ethereum",
  "devdoc": {
    "kind": "dev",
    "methods": {},
    "version": 1
  },
  "userdoc": {
    "kind": "user",
    "methods": {},
    "version": 1
  }
}