{
  "contractName": "IPFSStorage",
  "abi": [
    {
      "inputs": [
        {
          "internalType": "string",
          "name": "_ipfsHash",
          "type": "string"
        }
      ],
      "name": "setIPFSHash",
      "outputs": [],
      "stateMutability": "nonpayable",
      "type": "function"
    },
    {
      "inputs": [],
      "name": "getIPFSHash",
      "outputs": [
        {
          "internalType": "string",
          "name": "",
          "type": "string"
        }
      ],
      "stateMutability": "view",
      "type": "function"
    }
  ],
  "bytecode": "0x608060405234801561001057600080fd5b50610558806100206000396000f3fe608060405234801561001057600080fd5b50600436106100365760003560e01c806320b28ade1461003b578063b8a76f5414610059575b600080fd5b610043610075565b60405161005091906102a1565b60405180910390f35b610073600480360381019061006e919061040c565b610107565b005b60606000805461008490610484565b80601f01602080910402602001604051908101604052809291908181526020018280546100b090610484565b80156100fd5780601f106100d2576101008083540402835291602001916100fd565b820191906000526020600020905b8154815290600101906020018083116100e057829003601f168201915b5050505050905090565b600081511161014b576040517f08c379a000000000000000000000000000000000000000000000000000000000815260040161014290610502565b60405180910390fd5b8060009080519060200190610161929190610165565b5050565b82805461017190610484565b90600052602060002090601f01602090048101928261019357600085556101da565b82601f106101ac57805160ff19168380011785556101da565b828001600101855582156101da579182015b828111156101d95782518255916020019190600101906101be565b5b5090506101e791906101eb565b5090565b5b808211156102045760008160009055506001016101ec565b5090565b600081519050919050565b600082825260208201905092915050565b60005b83811015610242578082015181840152602081019050610227565b83811115610251576000848401525b50505050565b6000601f19601f8301169050919050565b600061027382610208565b61027d8185610213565b935061028d818560208601610224565b61029681610257565b840191505092915050565b600060208201905081810360008301526102bb8184610268565b905092915050565b6000604051905090565b600080fd5b600080fd5b600080fd5b600080fd5b7f4e487b7100000000000000000000000000000000000000000000000000000000600052604160045260246000fd5b61031982610257565b810181811067ffffffffffffffff82111715610338576103376102e1565b5b80604052505050565b600061034b6102c3565b90506103578282610310565b919050565b600067ffffffffffffffff821115610377576103766102e1565b5b61038082610257565b9050602081019050919050565b82818337600083830152505050565b60006103af6103aa8461035c565b610341565b9050828152602081018484840111156103cb576103ca6102dc565b5b6103d684828561038d565b509392505050565b600082601f8301126103f3576103f26102d7565b5b813561040384826020860161039c565b91505092915050565b600060208284031215610422576104216102cd565b5b600082013567ffffffffffffffff8111156104405761043f6102d2565b5b61044c848285016103de565b91505092915050565b7f4e487b7100000000000000000000000000000000000000000000000000000000600052602260045260246000fd5b6000600282049050600182168061049c57607f821691505b602082108114156104b0576104af610455565b5b50919050565b7f4950465320686173682063616e6e6f7420626520656d70747900000000000000600082015250565b60006104ec601983610213565b91506104f7826104b6565b602082019050919050565b6000602082019050818103600083015261051b816104df565b905091905056fea26469706673582212208e0297aaecc53ae86fe0efb1d1ebe45f3ecf58ca21cc930b5380756ee330773064736f6c63430008090033",
  "immutableReferences": {},
  "source": "// SPDX-License-Identifier: MIT\r\npragma solidity ^0.8.0;\r\n\r\ncontract IPFSStorage {\r\n    string private ipfsHash;\r\n\r\n    \r\n    function setIPFSHash(string memory _ipfsHash) public {\r\n    \r\n        require(bytes(_ipfsHash).length > 0, \"IPFS hash cannot be empty\");\r\n\r\n        ipfsHash = _ipfsHash;\r\n    }\r\n\r\n    \r\n    function getIPFSHash() public view returns (string memory) {\r\n        return ipfsHash;\r\n    }\r\n}",
  "sourcePath": "C:\\Users\\lenovo\\Desktop\\llm\\contracts\\SimpleStorage.sol",
  "compiler": {
    "name": "solc",
    "version": "0.8.9+commit.e5eed63a.Emscripten.clang"
  },
  "schemaVersion": "3.4.16",
  "updatedAt": "2023-12-23T13:07:41.492Z",
  "devdoc": {
    "kind": "dev",
    "methods": {},
    "version": 1
  },
  "userdoc": {
    "kind": "user",
    "methods": {},
    "version": 1
  }
}