{
  "contractName": "SimpleStorage",
  "abi": [
    {
      "inputs": [
        {
          "internalType": "address",
          "name": "",
          "type": "address"
        }
      ],
      "name": "dataEntries",
      "outputs": [
        {
          "internalType": "address",
          "name": "sender",
          "type": "address"
        },
        {
          "internalType": "string",
          "name": "ipfsHash",
          "type": "string"
        }
      ],
      "stateMutability": "view",
      "type": "function",
      "constant": true
    },
    {
      "inputs": [
        {
          "internalType": "string",
          "name": "_ipfsHash",
          "type": "string"
        }
      ],
      "name": "setIPFSHash",
      "outputs": [],
      "stateMutability": "nonpayable",
      "type": "function"
    },
    {
      "inputs": [
        {
          "internalType": "address",
          "name": "_sender",
          "type": "address"
        }
      ],
      "name": "getIPFSHash",
      "outputs": [
        {
          "internalType": "string",
          "name": "",
          "type": "string"
        }
      ],
      "stateMutability": "view",
      "type": "function",
      "constant": true
    }
  ],
  "bytecode": "0x608060405234801561001057600080fd5b50610786806100206000396000f3fe608060405234801561001057600080fd5b50600436106100415760003560e01c806350b9121414610046578063b8a76f5414610077578063cb0ab42514610093575b600080fd5b610060600480360381019061005b919061044a565b6100c3565b60405161006e92919061051f565b60405180910390f35b610091600480360381019061008c9190610684565b61018f565b005b6100ad60048036038101906100a8919061044a565b610262565b6040516100ba91906106cd565b60405180910390f35b60006020528060005260406000206000915090508060000160009054906101000a900473ffffffffffffffffffffffffffffffffffffffff169080600101805461010c9061071e565b80601f01602080910402602001604051908101604052809291908181526020018280546101389061071e565b80156101855780601f1061015a57610100808354040283529160200191610185565b820191906000526020600020905b81548152906001019060200180831161016857829003601f168201915b5050505050905082565b60405180604001604052803373ffffffffffffffffffffffffffffffffffffffff168152602001828152506000803373ffffffffffffffffffffffffffffffffffffffff1673ffffffffffffffffffffffffffffffffffffffff16815260200190815260200160002060008201518160000160006101000a81548173ffffffffffffffffffffffffffffffffffffffff021916908373ffffffffffffffffffffffffffffffffffffffff160217905550602082015181600101908051906020019061025b929190610335565b5090505050565b60606000808373ffffffffffffffffffffffffffffffffffffffff1673ffffffffffffffffffffffffffffffffffffffff16815260200190815260200160002060010180546102b09061071e565b80601f01602080910402602001604051908101604052809291908181526020018280546102dc9061071e565b80156103295780601f106102fe57610100808354040283529160200191610329565b820191906000526020600020905b81548152906001019060200180831161030c57829003601f168201915b50505050509050919050565b8280546103419061071e565b90600052602060002090601f01602090048101928261036357600085556103aa565b82601f1061037c57805160ff19168380011785556103aa565b828001600101855582156103aa579182015b828111156103a957825182559160200191906001019061038e565b5b5090506103b791906103bb565b5090565b5b808211156103d45760008160009055506001016103bc565b5090565b6000604051905090565b600080fd5b600080fd5b600073ffffffffffffffffffffffffffffffffffffffff82169050919050565b6000610417826103ec565b9050919050565b6104278161040c565b811461043257600080fd5b50565b6000813590506104448161041e565b92915050565b6000602082840312156104605761045f6103e2565b5b600061046e84828501610435565b91505092915050565b6104808161040c565b82525050565b600081519050919050565b600082825260208201905092915050565b60005b838110156104c05780820151818401526020810190506104a5565b838111156104cf576000848401525b50505050565b6000601f19601f8301169050919050565b60006104f182610486565b6104fb8185610491565b935061050b8185602086016104a2565b610514816104d5565b840191505092915050565b60006040820190506105346000830185610477565b818103602083015261054681846104e6565b90509392505050565b600080fd5b600080fd5b7f4e487b7100000000000000000000000000000000000000000000000000000000600052604160045260246000fd5b610591826104d5565b810181811067ffffffffffffffff821117156105b0576105af610559565b5b80604052505050565b60006105c36103d8565b90506105cf8282610588565b919050565b600067ffffffffffffffff8211156105ef576105ee610559565b5b6105f8826104d5565b9050602081019050919050565b82818337600083830152505050565b6000610627610622846105d4565b6105b9565b90508281526020810184848401111561064357610642610554565b5b61064e848285610605565b509392505050565b600082601f83011261066b5761066a61054f565b5b813561067b848260208601610614565b91505092915050565b60006020828403121561069a576106996103e2565b5b600082013567ffffffffffffffff8111156106b8576106b76103e7565b5b6106c484828501610656565b91505092915050565b600060208201905081810360008301526106e781846104e6565b905092915050565b7f4e487b7100000000000000000000000000000000000000000000000000000000600052602260045260246000fd5b6000600282049050600182168061073657607f821691505b6020821081141561074a576107496106ef565b5b5091905056fea2646970667358221220078bd4e40fcd68fd1cb5a230a5591e8cfad60677aec566ddb39ecc6189ecc35a64736f6c63430008090033",
  "immutableReferences": {},
  "source": "// SPDX-License-Identifier: MIT\r\npragma solidity ^0.8.0;\r\n\r\ncontract SimpleStorage {\r\n    struct DataEntry {\r\n        address sender;\r\n        string ipfsHash;\r\n    }\r\n\r\n    mapping(address => DataEntry) public dataEntries;\r\n\r\n    modifier onlySender() {\r\n        require(dataEntries[msg.sender].sender == msg.sender, \"You are not the sender of this data entry\");\r\n        _;\r\n    }\r\n\r\n    function setIPFSHash(string memory _ipfsHash) public {\r\n        dataEntries[msg.sender] = DataEntry(msg.sender, _ipfsHash);\r\n    }\r\n\r\n    function getIPFSHash(address _sender) public view returns (string memory) {\r\n        return dataEntries[_sender].ipfsHash;\r\n    }\r\n}",
  "sourcePath": "C:\\Users\\lenovo\\Desktop\\LLMS-CENG3550-\\contracts\\SimpleStorage.sol",
  "compiler": {
    "name": "solc",
    "version": "0.8.9+commit.e5eed63a.Emscripten.clang"
  },
  "schemaVersion": "3.4.16",
  "updatedAt": "2023-12-27T11:47:39.638Z",
  "networkType": "ethereum",
  "devdoc": {
    "kind": "dev",
    "methods": {},
    "version": 1
  },
  "userdoc": {
    "kind": "user",
    "methods": {},
    "version": 1
  }
}